{
  "_format": "hh-sol-artifact-1",
  "contractName": "JokeNFT",
  "sourceName": "contracts/Contract.sol",
  "abi": [
    {
      "inputs": [],
      "stateMutability": "nonpayable",
      "type": "constructor"
    },
    {
      "anonymous": false,
      "inputs": [
        {
          "indexed": true,
          "internalType": "address",
          "name": "owner",
          "type": "address"
        },
        {
          "indexed": true,
          "internalType": "address",
          "name": "approved",
          "type": "address"
        },
        {
          "indexed": true,
          "internalType": "uint256",
          "name": "tokenId",
          "type": "uint256"
        }
      ],
      "name": "Approval",
      "type": "event"
    },
    {
      "anonymous": false,
      "inputs": [
        {
          "indexed": true,
          "internalType": "address",
          "name": "owner",
          "type": "address"
        },
        {
          "indexed": true,
          "internalType": "address",
          "name": "operator",
          "type": "address"
        },
        {
          "indexed": false,
          "internalType": "bool",
          "name": "approved",
          "type": "bool"
        }
      ],
      "name": "ApprovalForAll",
      "type": "event"
    },
    {
      "anonymous": false,
      "inputs": [
        {
          "indexed": true,
          "internalType": "address",
          "name": "previousOwner",
          "type": "address"
        },
        {
          "indexed": true,
          "internalType": "address",
          "name": "newOwner",
          "type": "address"
        }
      ],
      "name": "OwnershipTransferred",
      "type": "event"
    },
    {
      "anonymous": false,
      "inputs": [
        {
          "indexed": true,
          "internalType": "address",
          "name": "from",
          "type": "address"
        },
        {
          "indexed": true,
          "internalType": "address",
          "name": "to",
          "type": "address"
        },
        {
          "indexed": true,
          "internalType": "uint256",
          "name": "tokenId",
          "type": "uint256"
        }
      ],
      "name": "Transfer",
      "type": "event"
    },
    {
      "inputs": [
        {
          "internalType": "address",
          "name": "to",
          "type": "address"
        },
        {
          "internalType": "uint256",
          "name": "tokenId",
          "type": "uint256"
        }
      ],
      "name": "approve",
      "outputs": [],
      "stateMutability": "nonpayable",
      "type": "function"
    },
    {
      "inputs": [
        {
          "internalType": "address",
          "name": "owner",
          "type": "address"
        }
      ],
      "name": "balanceOf",
      "outputs": [
        {
          "internalType": "uint256",
          "name": "",
          "type": "uint256"
        }
      ],
      "stateMutability": "view",
      "type": "function"
    },
    {
      "inputs": [
        {
          "internalType": "uint256",
          "name": "tokenId",
          "type": "uint256"
        }
      ],
      "name": "getApproved",
      "outputs": [
        {
          "internalType": "address",
          "name": "",
          "type": "address"
        }
      ],
      "stateMutability": "view",
      "type": "function"
    },
    {
      "inputs": [
        {
          "internalType": "address",
          "name": "owner",
          "type": "address"
        },
        {
          "internalType": "address",
          "name": "operator",
          "type": "address"
        }
      ],
      "name": "isApprovedForAll",
      "outputs": [
        {
          "internalType": "bool",
          "name": "",
          "type": "bool"
        }
      ],
      "stateMutability": "view",
      "type": "function"
    },
    {
      "inputs": [],
      "name": "name",
      "outputs": [
        {
          "internalType": "string",
          "name": "",
          "type": "string"
        }
      ],
      "stateMutability": "view",
      "type": "function"
    },
    {
      "inputs": [],
      "name": "owner",
      "outputs": [
        {
          "internalType": "address",
          "name": "",
          "type": "address"
        }
      ],
      "stateMutability": "view",
      "type": "function"
    },
    {
      "inputs": [
        {
          "internalType": "uint256",
          "name": "tokenId",
          "type": "uint256"
        }
      ],
      "name": "ownerOf",
      "outputs": [
        {
          "internalType": "address",
          "name": "",
          "type": "address"
        }
      ],
      "stateMutability": "view",
      "type": "function"
    },
    {
      "inputs": [],
      "name": "renounceOwnership",
      "outputs": [],
      "stateMutability": "nonpayable",
      "type": "function"
    },
    {
      "inputs": [
        {
          "internalType": "address",
          "name": "to",
          "type": "address"
        },
        {
          "internalType": "uint8",
          "name": "index",
          "type": "uint8"
        }
      ],
      "name": "safeMint",
      "outputs": [],
      "stateMutability": "nonpayable",
      "type": "function"
    },
    {
      "inputs": [
        {
          "internalType": "address",
          "name": "from",
          "type": "address"
        },
        {
          "internalType": "address",
          "name": "to",
          "type": "address"
        },
        {
          "internalType": "uint256",
          "name": "tokenId",
          "type": "uint256"
        }
      ],
      "name": "safeTransferFrom",
      "outputs": [],
      "stateMutability": "nonpayable",
      "type": "function"
    },
    {
      "inputs": [
        {
          "internalType": "address",
          "name": "from",
          "type": "address"
        },
        {
          "internalType": "address",
          "name": "to",
          "type": "address"
        },
        {
          "internalType": "uint256",
          "name": "tokenId",
          "type": "uint256"
        },
        {
          "internalType": "bytes",
          "name": "data",
          "type": "bytes"
        }
      ],
      "name": "safeTransferFrom",
      "outputs": [],
      "stateMutability": "nonpayable",
      "type": "function"
    },
    {
      "inputs": [
        {
          "internalType": "address",
          "name": "operator",
          "type": "address"
        },
        {
          "internalType": "bool",
          "name": "approved",
          "type": "bool"
        }
      ],
      "name": "setApprovalForAll",
      "outputs": [],
      "stateMutability": "nonpayable",
      "type": "function"
    },
    {
      "inputs": [
        {
          "internalType": "bytes4",
          "name": "interfaceId",
          "type": "bytes4"
        }
      ],
      "name": "supportsInterface",
      "outputs": [
        {
          "internalType": "bool",
          "name": "",
          "type": "bool"
        }
      ],
      "stateMutability": "view",
      "type": "function"
    },
    {
      "inputs": [],
      "name": "symbol",
      "outputs": [
        {
          "internalType": "string",
          "name": "",
          "type": "string"
        }
      ],
      "stateMutability": "view",
      "type": "function"
    },
    {
      "inputs": [
        {
          "internalType": "uint256",
          "name": "tokenId",
          "type": "uint256"
        }
      ],
      "name": "tokenURI",
      "outputs": [
        {
          "internalType": "string",
          "name": "",
          "type": "string"
        }
      ],
      "stateMutability": "view",
      "type": "function"
    },
    {
      "inputs": [
        {
          "internalType": "address",
          "name": "from",
          "type": "address"
        },
        {
          "internalType": "address",
          "name": "to",
          "type": "address"
        },
        {
          "internalType": "uint256",
          "name": "tokenId",
          "type": "uint256"
        }
      ],
      "name": "transferFrom",
      "outputs": [],
      "stateMutability": "nonpayable",
      "type": "function"
    },
    {
      "inputs": [
        {
          "internalType": "address",
          "name": "newOwner",
          "type": "address"
        }
      ],
      "name": "transferOwnership",
      "outputs": [],
      "stateMutability": "nonpayable",
      "type": "function"
    }
  ],
  "bytecode": "0x60806040526040518060600160405280604051806080016040528060508152602001620031e660509139815260200160405180608001604052806050815260200162003146605091398152602001604051806080016040528060508152602001620031966050913981525060099060036200007c9291906200021f565b503480156200008a57600080fd5b506040518060400160405280600681526020017f4a4f4b524e4600000000000000000000000000000000000000000000000000008152506040518060400160405280600481526020017f4a4b524e0000000000000000000000000000000000000000000000000000000081525081600090805190602001906200010f92919062000286565b5080600190805190602001906200012892919062000286565b5050506200014b6200013f6200015160201b60201c565b6200015960201b60201c565b62000409565b600033905090565b6000600760009054906101000a900473ffffffffffffffffffffffffffffffffffffffff16905081600760006101000a81548173ffffffffffffffffffffffffffffffffffffffff021916908373ffffffffffffffffffffffffffffffffffffffff1602179055508173ffffffffffffffffffffffffffffffffffffffff168173ffffffffffffffffffffffffffffffffffffffff167f8be0079c531659141344cd1fd0a4f28419497f9722a3daafe3b4186f6b6457e060405160405180910390a35050565b82805482825590600052602060002090810192821562000273579160200282015b82811115620002725782518290805190602001906200026192919062000286565b509160200191906001019062000240565b5b50905062000282919062000317565b5090565b8280546200029490620003d3565b90600052602060002090601f016020900481019282620002b8576000855562000304565b82601f10620002d357805160ff191683800117855562000304565b8280016001018555821562000304579182015b8281111562000303578251825591602001919060010190620002e6565b5b5090506200031391906200033f565b5090565b5b808211156200033b57600081816200033191906200035e565b5060010162000318565b5090565b5b808211156200035a57600081600090555060010162000340565b5090565b5080546200036c90620003d3565b6000825580601f10620003805750620003a1565b601f016020900490600052602060002090810190620003a091906200033f565b5b50565b7f4e487b7100000000000000000000000000000000000000000000000000000000600052602260045260246000fd5b60006002820490506001821680620003ec57607f821691505b60208210811415620004035762000402620003a4565b5b50919050565b612d2d80620004196000396000f3fe608060405234801561001057600080fd5b506004361061010b5760003560e01c8063715018a6116100a2578063a22cb46511610071578063a22cb465146102a4578063b88d4fde146102c0578063c87b56dd146102dc578063e985e9c51461030c578063f2fde38b1461033c5761010b565b8063715018a614610242578063761c4c401461024c5780638da5cb5b1461026857806395d89b41146102865761010b565b806323b872dd116100de57806323b872dd146101aa57806342842e0e146101c65780636352211e146101e257806370a08231146102125761010b565b806301ffc9a71461011057806306fdde0314610140578063081812fc1461015e578063095ea7b31461018e575b600080fd5b61012a60048036038101906101259190611d7b565b610358565b6040516101379190611dc3565b60405180910390f35b61014861043a565b6040516101559190611e77565b60405180910390f35b61017860048036038101906101739190611ecf565b6104cc565b6040516101859190611f3d565b60405180910390f35b6101a860048036038101906101a39190611f84565b610512565b005b6101c460048036038101906101bf9190611fc4565b61062a565b005b6101e060048036038101906101db9190611fc4565b61068a565b005b6101fc60048036038101906101f79190611ecf565b6106aa565b6040516102099190611f3d565b60405180910390f35b61022c60048036038101906102279190612017565b610731565b6040516102399190612053565b60405180910390f35b61024a6107e9565b005b610266600480360381019061026191906120a7565b6107fd565b005b610270610945565b60405161027d9190611f3d565b60405180910390f35b61028e61096f565b60405161029b9190611e77565b60405180910390f35b6102be60048036038101906102b99190612113565b610a01565b005b6102da60048036038101906102d59190612288565b610a17565b005b6102f660048036038101906102f19190611ecf565b610a79565b6040516103039190611e77565b60405180910390f35b6103266004803603810190610321919061230b565b610a8b565b6040516103339190611dc3565b60405180910390f35b61035660048036038101906103519190612017565b610b1f565b005b60007f80ac58cd000000000000000000000000000000000000000000000000000000007bffffffffffffffffffffffffffffffffffffffffffffffffffffffff1916827bffffffffffffffffffffffffffffffffffffffffffffffffffffffff1916148061042357507f5b5e139f000000000000000000000000000000000000000000000000000000007bffffffffffffffffffffffffffffffffffffffffffffffffffffffff1916827bffffffffffffffffffffffffffffffffffffffffffffffffffffffff1916145b80610433575061043282610ba3565b5b9050919050565b6060600080546104499061237a565b80601f01602080910402602001604051908101604052809291908181526020018280546104759061237a565b80156104c25780601f10610497576101008083540402835291602001916104c2565b820191906000526020600020905b8154815290600101906020018083116104a557829003601f168201915b5050505050905090565b60006104d782610c0d565b6004600083815260200190815260200160002060009054906101000a900473ffffffffffffffffffffffffffffffffffffffff169050919050565b600061051d826106aa565b90508073ffffffffffffffffffffffffffffffffffffffff168373ffffffffffffffffffffffffffffffffffffffff16141561058e576040517f08c379a00000000000000000000000000000000000000000000000000000000081526004016105859061241e565b60405180910390fd5b8073ffffffffffffffffffffffffffffffffffffffff166105ad610c58565b73ffffffffffffffffffffffffffffffffffffffff1614806105dc57506105db816105d6610c58565b610a8b565b5b61061b576040517f08c379a0000000000000000000000000000000000000000000000000000000008152600401610612906124b0565b60405180910390fd5b6106258383610c60565b505050565b61063b610635610c58565b82610d19565b61067a576040517f08c379a000000000000000000000000000000000000000000000000000000000815260040161067190612542565b60405180910390fd5b610685838383610dae565b505050565b6106a583838360405180602001604052806000815250610a17565b505050565b6000806106b6836110a8565b9050600073ffffffffffffffffffffffffffffffffffffffff168173ffffffffffffffffffffffffffffffffffffffff161415610728576040517f08c379a000000000000000000000000000000000000000000000000000000000815260040161071f906125ae565b60405180910390fd5b80915050919050565b60008073ffffffffffffffffffffffffffffffffffffffff168273ffffffffffffffffffffffffffffffffffffffff1614156107a2576040517f08c379a000000000000000000000000000000000000000000000000000000000815260040161079990612640565b60405180910390fd5b600360008373ffffffffffffffffffffffffffffffffffffffff1673ffffffffffffffffffffffffffffffffffffffff168152602001908152602001600020549050919050565b6107f16110e5565b6107fb6000611163565b565b3373ffffffffffffffffffffffffffffffffffffffff168273ffffffffffffffffffffffffffffffffffffffff161461086b576040517f08c379a0000000000000000000000000000000000000000000000000000000008152600401610862906126ac565b60405180910390fd5b60006108776008611229565b90506108838382611237565b61088d6008611455565b6109408160098460ff16815481106108a8576108a76126cc565b5b9060005260206000200180546108bd9061237a565b80601f01602080910402602001604051908101604052809291908181526020018280546108e99061237a565b80156109365780601f1061090b57610100808354040283529160200191610936565b820191906000526020600020905b81548152906001019060200180831161091957829003601f168201915b505050505061146b565b505050565b6000600760009054906101000a900473ffffffffffffffffffffffffffffffffffffffff16905090565b60606001805461097e9061237a565b80601f01602080910402602001604051908101604052809291908181526020018280546109aa9061237a565b80156109f75780601f106109cc576101008083540402835291602001916109f7565b820191906000526020600020905b8154815290600101906020018083116109da57829003601f168201915b5050505050905090565b610a13610a0c610c58565b83836114df565b5050565b610a28610a22610c58565b83610d19565b610a67576040517f08c379a0000000000000000000000000000000000000000000000000000000008152600401610a5e90612542565b60405180910390fd5b610a738484848461164c565b50505050565b6060610a84826116a8565b9050919050565b6000600560008473ffffffffffffffffffffffffffffffffffffffff1673ffffffffffffffffffffffffffffffffffffffff16815260200190815260200160002060008373ffffffffffffffffffffffffffffffffffffffff1673ffffffffffffffffffffffffffffffffffffffff16815260200190815260200160002060009054906101000a900460ff16905092915050565b610b276110e5565b600073ffffffffffffffffffffffffffffffffffffffff168173ffffffffffffffffffffffffffffffffffffffff161415610b97576040517f08c379a0000000000000000000000000000000000000000000000000000000008152600401610b8e9061276d565b60405180910390fd5b610ba081611163565b50565b60007f01ffc9a7000000000000000000000000000000000000000000000000000000007bffffffffffffffffffffffffffffffffffffffffffffffffffffffff1916827bffffffffffffffffffffffffffffffffffffffffffffffffffffffff1916149050919050565b610c16816117bb565b610c55576040517f08c379a0000000000000000000000000000000000000000000000000000000008152600401610c4c906125ae565b60405180910390fd5b50565b600033905090565b816004600083815260200190815260200160002060006101000a81548173ffffffffffffffffffffffffffffffffffffffff021916908373ffffffffffffffffffffffffffffffffffffffff160217905550808273ffffffffffffffffffffffffffffffffffffffff16610cd3836106aa565b73ffffffffffffffffffffffffffffffffffffffff167f8c5be1e5ebec7d5bd14f71427d1e84f3dd0314c0f7b2291e5b200ac8c7c3b92560405160405180910390a45050565b600080610d25836106aa565b90508073ffffffffffffffffffffffffffffffffffffffff168473ffffffffffffffffffffffffffffffffffffffff161480610d675750610d668185610a8b565b5b80610da557508373ffffffffffffffffffffffffffffffffffffffff16610d8d846104cc565b73ffffffffffffffffffffffffffffffffffffffff16145b91505092915050565b8273ffffffffffffffffffffffffffffffffffffffff16610dce826106aa565b73ffffffffffffffffffffffffffffffffffffffff1614610e24576040517f08c379a0000000000000000000000000000000000000000000000000000000008152600401610e1b906127ff565b60405180910390fd5b600073ffffffffffffffffffffffffffffffffffffffff168273ffffffffffffffffffffffffffffffffffffffff161415610e94576040517f08c379a0000000000000000000000000000000000000000000000000000000008152600401610e8b90612891565b60405180910390fd5b610ea183838360016117fc565b8273ffffffffffffffffffffffffffffffffffffffff16610ec1826106aa565b73ffffffffffffffffffffffffffffffffffffffff1614610f17576040517f08c379a0000000000000000000000000000000000000000000000000000000008152600401610f0e906127ff565b60405180910390fd5b6004600082815260200190815260200160002060006101000a81549073ffffffffffffffffffffffffffffffffffffffff02191690556001600360008573ffffffffffffffffffffffffffffffffffffffff1673ffffffffffffffffffffffffffffffffffffffff168152602001908152602001600020600082825403925050819055506001600360008473ffffffffffffffffffffffffffffffffffffffff1673ffffffffffffffffffffffffffffffffffffffff16815260200190815260200160002060008282540192505081905550816002600083815260200190815260200160002060006101000a81548173ffffffffffffffffffffffffffffffffffffffff021916908373ffffffffffffffffffffffffffffffffffffffff160217905550808273ffffffffffffffffffffffffffffffffffffffff168473ffffffffffffffffffffffffffffffffffffffff167fddf252ad1be2c89b69c2b068fc378daa952ba7f163c4a11628f55a4df523b3ef60405160405180910390a46110a38383836001611802565b505050565b60006002600083815260200190815260200160002060009054906101000a900473ffffffffffffffffffffffffffffffffffffffff169050919050565b6110ed610c58565b73ffffffffffffffffffffffffffffffffffffffff1661110b610945565b73ffffffffffffffffffffffffffffffffffffffff1614611161576040517f08c379a0000000000000000000000000000000000000000000000000000000008152600401611158906128fd565b60405180910390fd5b565b6000600760009054906101000a900473ffffffffffffffffffffffffffffffffffffffff16905081600760006101000a81548173ffffffffffffffffffffffffffffffffffffffff021916908373ffffffffffffffffffffffffffffffffffffffff1602179055508173ffffffffffffffffffffffffffffffffffffffff168173ffffffffffffffffffffffffffffffffffffffff167f8be0079c531659141344cd1fd0a4f28419497f9722a3daafe3b4186f6b6457e060405160405180910390a35050565b600081600001549050919050565b600073ffffffffffffffffffffffffffffffffffffffff168273ffffffffffffffffffffffffffffffffffffffff1614156112a7576040517f08c379a000000000000000000000000000000000000000000000000000000000815260040161129e90612969565b60405180910390fd5b6112b0816117bb565b156112f0576040517f08c379a00000000000000000000000000000000000000000000000000000000081526004016112e7906129d5565b60405180910390fd5b6112fe6000838360016117fc565b611307816117bb565b15611347576040517f08c379a000000000000000000000000000000000000000000000000000000000815260040161133e906129d5565b60405180910390fd5b6001600360008473ffffffffffffffffffffffffffffffffffffffff1673ffffffffffffffffffffffffffffffffffffffff16815260200190815260200160002060008282540192505081905550816002600083815260200190815260200160002060006101000a81548173ffffffffffffffffffffffffffffffffffffffff021916908373ffffffffffffffffffffffffffffffffffffffff160217905550808273ffffffffffffffffffffffffffffffffffffffff16600073ffffffffffffffffffffffffffffffffffffffff167fddf252ad1be2c89b69c2b068fc378daa952ba7f163c4a11628f55a4df523b3ef60405160405180910390a4611451600083836001611802565b5050565b6001816000016000828254019250508190555050565b611474826117bb565b6114b3576040517f08c379a00000000000000000000000000000000000000000000000000000000081526004016114aa90612a67565b60405180910390fd5b806006600084815260200190815260200160002090805190602001906114da929190611c6c565b505050565b8173ffffffffffffffffffffffffffffffffffffffff168373ffffffffffffffffffffffffffffffffffffffff16141561154e576040517f08c379a000000000000000000000000000000000000000000000000000000000815260040161154590612ad3565b60405180910390fd5b80600560008573ffffffffffffffffffffffffffffffffffffffff1673ffffffffffffffffffffffffffffffffffffffff16815260200190815260200160002060008473ffffffffffffffffffffffffffffffffffffffff1673ffffffffffffffffffffffffffffffffffffffff16815260200190815260200160002060006101000a81548160ff0219169083151502179055508173ffffffffffffffffffffffffffffffffffffffff168373ffffffffffffffffffffffffffffffffffffffff167f17307eab39ab6107e8899845ad3d59bd9653f200f220920489ca2b5937696c318360405161163f9190611dc3565b60405180910390a3505050565b611657848484610dae565b61166384848484611808565b6116a2576040517f08c379a000000000000000000000000000000000000000000000000000000000815260040161169990612b65565b60405180910390fd5b50505050565b60606116b382610c0d565b60006006600084815260200190815260200160002080546116d39061237a565b80601f01602080910402602001604051908101604052809291908181526020018280546116ff9061237a565b801561174c5780601f106117215761010080835404028352916020019161174c565b820191906000526020600020905b81548152906001019060200180831161172f57829003601f168201915b50505050509050600061175d61199f565b90506000815114156117735781925050506117b6565b6000825111156117a8578082604051602001611790929190612bc1565b604051602081830303815290604052925050506117b6565b6117b1846119b6565b925050505b919050565b60008073ffffffffffffffffffffffffffffffffffffffff166117dd836110a8565b73ffffffffffffffffffffffffffffffffffffffff1614159050919050565b50505050565b50505050565b60006118298473ffffffffffffffffffffffffffffffffffffffff16611a1e565b15611992578373ffffffffffffffffffffffffffffffffffffffff1663150b7a02611852610c58565b8786866040518563ffffffff1660e01b81526004016118749493929190612c3a565b602060405180830381600087803b15801561188e57600080fd5b505af19250505080156118bf57506040513d601f19601f820116820180604052508101906118bc9190612c9b565b60015b611942573d80600081146118ef576040519150601f19603f3d011682016040523d82523d6000602084013e6118f4565b606091505b5060008151141561193a576040517f08c379a000000000000000000000000000000000000000000000000000000000815260040161193190612b65565b60405180910390fd5b805181602001fd5b63150b7a0260e01b7bffffffffffffffffffffffffffffffffffffffffffffffffffffffff1916817bffffffffffffffffffffffffffffffffffffffffffffffffffffffff191614915050611997565b600190505b949350505050565b606060405180602001604052806000815250905090565b60606119c182610c0d565b60006119cb61199f565b905060008151116119eb5760405180602001604052806000815250611a16565b806119f584611a41565b604051602001611a06929190612bc1565b6040516020818303038152906040525b915050919050565b6000808273ffffffffffffffffffffffffffffffffffffffff163b119050919050565b606060006001611a5084611b19565b01905060008167ffffffffffffffff811115611a6f57611a6e61215d565b5b6040519080825280601f01601f191660200182016040528015611aa15781602001600182028036833780820191505090505b509050600082602001820190505b600115611b0e578080600190039150507f3031323334353637383961626364656600000000000000000000000000000000600a86061a8153600a8581611af857611af7612cc8565b5b0494506000851415611b0957611b0e565b611aaf565b819350505050919050565b600080600090507a184f03e93ff9f4daa797ed6e38ed64bf6a1f0100000000000000008310611b77577a184f03e93ff9f4daa797ed6e38ed64bf6a1f0100000000000000008381611b6d57611b6c612cc8565b5b0492506040810190505b6d04ee2d6d415b85acef81000000008310611bb4576d04ee2d6d415b85acef81000000008381611baa57611ba9612cc8565b5b0492506020810190505b662386f26fc100008310611be357662386f26fc100008381611bd957611bd8612cc8565b5b0492506010810190505b6305f5e1008310611c0c576305f5e1008381611c0257611c01612cc8565b5b0492506008810190505b6127108310611c31576127108381611c2757611c26612cc8565b5b0492506004810190505b60648310611c545760648381611c4a57611c49612cc8565b5b0492506002810190505b600a8310611c63576001810190505b80915050919050565b828054611c789061237a565b90600052602060002090601f016020900481019282611c9a5760008555611ce1565b82601f10611cb357805160ff1916838001178555611ce1565b82800160010185558215611ce1579182015b82811115611ce0578251825591602001919060010190611cc5565b5b509050611cee9190611cf2565b5090565b5b80821115611d0b576000816000905550600101611cf3565b5090565b6000604051905090565b600080fd5b600080fd5b60007fffffffff0000000000000000000000000000000000000000000000000000000082169050919050565b611d5881611d23565b8114611d6357600080fd5b50565b600081359050611d7581611d4f565b92915050565b600060208284031215611d9157611d90611d19565b5b6000611d9f84828501611d66565b91505092915050565b60008115159050919050565b611dbd81611da8565b82525050565b6000602082019050611dd86000830184611db4565b92915050565b600081519050919050565b600082825260208201905092915050565b60005b83811015611e18578082015181840152602081019050611dfd565b83811115611e27576000848401525b50505050565b6000601f19601f8301169050919050565b6000611e4982611dde565b611e538185611de9565b9350611e63818560208601611dfa565b611e6c81611e2d565b840191505092915050565b60006020820190508181036000830152611e918184611e3e565b905092915050565b6000819050919050565b611eac81611e99565b8114611eb757600080fd5b50565b600081359050611ec981611ea3565b92915050565b600060208284031215611ee557611ee4611d19565b5b6000611ef384828501611eba565b91505092915050565b600073ffffffffffffffffffffffffffffffffffffffff82169050919050565b6000611f2782611efc565b9050919050565b611f3781611f1c565b82525050565b6000602082019050611f526000830184611f2e565b92915050565b611f6181611f1c565b8114611f6c57600080fd5b50565b600081359050611f7e81611f58565b92915050565b60008060408385031215611f9b57611f9a611d19565b5b6000611fa985828601611f6f565b9250506020611fba85828601611eba565b9150509250929050565b600080600060608486031215611fdd57611fdc611d19565b5b6000611feb86828701611f6f565b9350506020611ffc86828701611f6f565b925050604061200d86828701611eba565b9150509250925092565b60006020828403121561202d5761202c611d19565b5b600061203b84828501611f6f565b91505092915050565b61204d81611e99565b82525050565b60006020820190506120686000830184612044565b92915050565b600060ff82169050919050565b6120848161206e565b811461208f57600080fd5b50565b6000813590506120a18161207b565b92915050565b600080604083850312156120be576120bd611d19565b5b60006120cc85828601611f6f565b92505060206120dd85828601612092565b9150509250929050565b6120f081611da8565b81146120fb57600080fd5b50565b60008135905061210d816120e7565b92915050565b6000806040838503121561212a57612129611d19565b5b600061213885828601611f6f565b9250506020612149858286016120fe565b9150509250929050565b600080fd5b600080fd5b7f4e487b7100000000000000000000000000000000000000000000000000000000600052604160045260246000fd5b61219582611e2d565b810181811067ffffffffffffffff821117156121b4576121b361215d565b5b80604052505050565b60006121c7611d0f565b90506121d3828261218c565b919050565b600067ffffffffffffffff8211156121f3576121f261215d565b5b6121fc82611e2d565b9050602081019050919050565b82818337600083830152505050565b600061222b612226846121d8565b6121bd565b90508281526020810184848401111561224757612246612158565b5b612252848285612209565b509392505050565b600082601f83011261226f5761226e612153565b5b813561227f848260208601612218565b91505092915050565b600080600080608085870312156122a2576122a1611d19565b5b60006122b087828801611f6f565b94505060206122c187828801611f6f565b93505060406122d287828801611eba565b925050606085013567ffffffffffffffff8111156122f3576122f2611d1e565b5b6122ff8782880161225a565b91505092959194509250565b6000806040838503121561232257612321611d19565b5b600061233085828601611f6f565b925050602061234185828601611f6f565b9150509250929050565b7f4e487b7100000000000000000000000000000000000000000000000000000000600052602260045260246000fd5b6000600282049050600182168061239257607f821691505b602082108114156123a6576123a561234b565b5b50919050565b7f4552433732313a20617070726f76616c20746f2063757272656e74206f776e6560008201527f7200000000000000000000000000000000000000000000000000000000000000602082015250565b6000612408602183611de9565b9150612413826123ac565b604082019050919050565b60006020820190508181036000830152612437816123fb565b9050919050565b7f4552433732313a20617070726f76652063616c6c6572206973206e6f7420746f60008201527f6b656e206f776e6572206f7220617070726f76656420666f7220616c6c000000602082015250565b600061249a603d83611de9565b91506124a58261243e565b604082019050919050565b600060208201905081810360008301526124c98161248d565b9050919050565b7f4552433732313a2063616c6c6572206973206e6f7420746f6b656e206f776e6560008201527f72206f7220617070726f76656400000000000000000000000000000000000000602082015250565b600061252c602d83611de9565b9150612537826124d0565b604082019050919050565b6000602082019050818103600083015261255b8161251f565b9050919050565b7f4552433732313a20696e76616c696420746f6b656e2049440000000000000000600082015250565b6000612598601883611de9565b91506125a382612562565b602082019050919050565b600060208201905081810360008301526125c78161258b565b9050919050565b7f4552433732313a2061646472657373207a65726f206973206e6f74206120766160008201527f6c6964206f776e65720000000000000000000000000000000000000000000000602082015250565b600061262a602983611de9565b9150612635826125ce565b604082019050919050565b600060208201905081810360008301526126598161261d565b9050919050565b7f596f752063616e2774206d696e742074686973204e4654000000000000000000600082015250565b6000612696601783611de9565b91506126a182612660565b602082019050919050565b600060208201905081810360008301526126c581612689565b9050919050565b7f4e487b7100000000000000000000000000000000000000000000000000000000600052603260045260246000fd5b7f4f776e61626c653a206e6577206f776e657220697320746865207a65726f206160008201527f6464726573730000000000000000000000000000000000000000000000000000602082015250565b6000612757602683611de9565b9150612762826126fb565b604082019050919050565b600060208201905081810360008301526127868161274a565b9050919050565b7f4552433732313a207472616e736665722066726f6d20696e636f72726563742060008201527f6f776e6572000000000000000000000000000000000000000000000000000000602082015250565b60006127e9602583611de9565b91506127f48261278d565b604082019050919050565b60006020820190508181036000830152612818816127dc565b9050919050565b7f4552433732313a207472616e7366657220746f20746865207a65726f2061646460008201527f7265737300000000000000000000000000000000000000000000000000000000602082015250565b600061287b602483611de9565b91506128868261281f565b604082019050919050565b600060208201905081810360008301526128aa8161286e565b9050919050565b7f4f776e61626c653a2063616c6c6572206973206e6f7420746865206f776e6572600082015250565b60006128e7602083611de9565b91506128f2826128b1565b602082019050919050565b60006020820190508181036000830152612916816128da565b9050919050565b7f4552433732313a206d696e7420746f20746865207a65726f2061646472657373600082015250565b6000612953602083611de9565b915061295e8261291d565b602082019050919050565b6000602082019050818103600083015261298281612946565b9050919050565b7f4552433732313a20746f6b656e20616c7265616479206d696e74656400000000600082015250565b60006129bf601c83611de9565b91506129ca82612989565b602082019050919050565b600060208201905081810360008301526129ee816129b2565b9050919050565b7f45524337323155524953746f726167653a2055524920736574206f66206e6f6e60008201527f6578697374656e7420746f6b656e000000000000000000000000000000000000602082015250565b6000612a51602e83611de9565b9150612a5c826129f5565b604082019050919050565b60006020820190508181036000830152612a8081612a44565b9050919050565b7f4552433732313a20617070726f766520746f2063616c6c657200000000000000600082015250565b6000612abd601983611de9565b9150612ac882612a87565b602082019050919050565b60006020820190508181036000830152612aec81612ab0565b9050919050565b7f4552433732313a207472616e7366657220746f206e6f6e20455243373231526560008201527f63656976657220696d706c656d656e7465720000000000000000000000000000602082015250565b6000612b4f603283611de9565b9150612b5a82612af3565b604082019050919050565b60006020820190508181036000830152612b7e81612b42565b9050919050565b600081905092915050565b6000612b9b82611dde565b612ba58185612b85565b9350612bb5818560208601611dfa565b80840191505092915050565b6000612bcd8285612b90565b9150612bd98284612b90565b91508190509392505050565b600081519050919050565b600082825260208201905092915050565b6000612c0c82612be5565b612c168185612bf0565b9350612c26818560208601611dfa565b612c2f81611e2d565b840191505092915050565b6000608082019050612c4f6000830187611f2e565b612c5c6020830186611f2e565b612c696040830185612044565b8181036060830152612c7b8184612c01565b905095945050505050565b600081519050612c9581611d4f565b92915050565b600060208284031215612cb157612cb0611d19565b5b6000612cbf84828501612c86565b91505092915050565b7f4e487b7100000000000000000000000000000000000000000000000000000000600052601260045260246000fdfea264697066735822122007eed24916f0bd28eb501d0f1b1c7a59c4e2094f2aa106e658cd74a831af3d5064736f6c6343000809003368747470733a2f2f676174657761792e70696e6174612e636c6f75642f697066732f516d64763161556e503550773855684e697569647a436b3653315674366e547869687839723136596d595375777368747470733a2f2f676174657761792e70696e6174612e636c6f75642f697066732f516d6164663257387477425a32335770636e6e68434537716f3268654877737336484c70415265723954506f734e68747470733a2f2f676174657761792e70696e6174612e636c6f75642f697066732f516d64687a465841477a75623271323837484b50637a3271713648716754356378565268634e764e455444685164",
  "linkReferences": {},
  "deployedLinkReferences": {}
}