{
  "_format": "hh-sol-artifact-1",
  "contractName": "JokesContract",
  "sourceName": "contracts/Contract.sol",
  "abi": [
    {
      "inputs": [],
      "stateMutability": "nonpayable",
      "type": "constructor"
    },
    {
      "inputs": [
        {
          "internalType": "string",
          "name": "title",
          "type": "string"
        }
      ],
      "name": "addCategory",
      "outputs": [],
      "stateMutability": "nonpayable",
      "type": "function"
    },
    {
      "inputs": [
        {
          "components": [
            {
              "internalType": "string",
              "name": "title",
              "type": "string"
            },
            {
              "internalType": "string",
              "name": "content",
              "type": "string"
            },
            {
              "internalType": "uint256",
              "name": "category_id",
              "type": "uint256"
            },
            {
              "internalType": "address",
              "name": "user",
              "type": "address"
            },
            {
              "internalType": "uint256",
              "name": "create_timestamp",
              "type": "uint256"
            }
          ],
          "internalType": "struct JokesContract.Joke",
          "name": "joke_element",
          "type": "tuple"
        }
      ],
      "name": "addJoke",
      "outputs": [],
      "stateMutability": "nonpayable",
      "type": "function"
    },
    {
      "inputs": [
        {
          "internalType": "address",
          "name": "user",
          "type": "address"
        }
      ],
      "name": "addUser",
      "outputs": [],
      "stateMutability": "nonpayable",
      "type": "function"
    },
    {
      "inputs": [],
      "name": "allCategories",
      "outputs": [
        {
          "internalType": "string[]",
          "name": "",
          "type": "string[]"
        }
      ],
      "stateMutability": "view",
      "type": "function"
    },
    {
      "inputs": [],
      "name": "allJokes",
      "outputs": [
        {
          "components": [
            {
              "internalType": "string",
              "name": "title",
              "type": "string"
            },
            {
              "internalType": "string",
              "name": "content",
              "type": "string"
            },
            {
              "internalType": "uint256",
              "name": "category_id",
              "type": "uint256"
            },
            {
              "internalType": "address",
              "name": "user",
              "type": "address"
            },
            {
              "internalType": "uint256",
              "name": "create_timestamp",
              "type": "uint256"
            }
          ],
          "internalType": "struct JokesContract.Joke[]",
          "name": "",
          "type": "tuple[]"
        }
      ],
      "stateMutability": "view",
      "type": "function"
    },
    {
      "inputs": [],
      "name": "allUsers",
      "outputs": [
        {
          "internalType": "address[]",
          "name": "",
          "type": "address[]"
        }
      ],
      "stateMutability": "view",
      "type": "function"
    },
    {
      "inputs": [
        {
          "internalType": "address",
          "name": "destination",
          "type": "address"
        }
      ],
      "name": "donate",
      "outputs": [],
      "stateMutability": "payable",
      "type": "function"
    },
    {
      "inputs": [
        {
          "internalType": "uint256",
          "name": "index",
          "type": "uint256"
        }
      ],
      "name": "getCategory",
      "outputs": [
        {
          "internalType": "string",
          "name": "",
          "type": "string"
        }
      ],
      "stateMutability": "view",
      "type": "function"
    },
    {
      "inputs": [],
      "name": "isOwner",
      "outputs": [
        {
          "internalType": "bool",
          "name": "",
          "type": "bool"
        }
      ],
      "stateMutability": "view",
      "type": "function"
    },
    {
      "inputs": [
        {
          "internalType": "uint256",
          "name": "index",
          "type": "uint256"
        }
      ],
      "name": "removeJoke",
      "outputs": [],
      "stateMutability": "nonpayable",
      "type": "function"
    },
    {
      "inputs": [
        {
          "internalType": "uint256",
          "name": "index",
          "type": "uint256"
        },
        {
          "components": [
            {
              "internalType": "string",
              "name": "title",
              "type": "string"
            },
            {
              "internalType": "string",
              "name": "content",
              "type": "string"
            },
            {
              "internalType": "uint256",
              "name": "category_id",
              "type": "uint256"
            },
            {
              "internalType": "address",
              "name": "user",
              "type": "address"
            },
            {
              "internalType": "uint256",
              "name": "create_timestamp",
              "type": "uint256"
            }
          ],
          "internalType": "struct JokesContract.Joke",
          "name": "joke_element",
          "type": "tuple"
        }
      ],
      "name": "updateJoke",
      "outputs": [],
      "stateMutability": "nonpayable",
      "type": "function"
    },
    {
      "inputs": [
        {
          "internalType": "uint256",
          "name": "",
          "type": "uint256"
        }
      ],
      "name": "users",
      "outputs": [
        {
          "internalType": "address",
          "name": "",
          "type": "address"
        }
      ],
      "stateMutability": "view",
      "type": "function"
    }
  ],
  "bytecode": "0x60806040526000600155600060025534801561001a57600080fd5b50336000806101000a81548173ffffffffffffffffffffffffffffffffffffffff021916908373ffffffffffffffffffffffffffffffffffffffff1602179055506121568061006a6000396000f3fe6080604052600436106100a65760003560e01c80634918600a116100645780634918600a146101ac5780637d5b615e146101d75780637e25fc63146102005780638f32d59b14610229578063cfa8f4da14610254578063f3052d261461027d576100a6565b8062362a95146100ab578063264866d0146100c75780632e0dcbf7146100f257806332429f2a1461011b578063365b98b214610146578063421b2d8b14610183575b600080fd5b6100c560048036038101906100c091906110d1565b6102ba565b005b3480156100d357600080fd5b506100dc610304565b6040516100e99190611259565b60405180910390f35b3480156100fe57600080fd5b50610119600480360381019061011491906113b0565b6103dd565b005b34801561012757600080fd5b506101306104aa565b60405161013d9190611560565b60405180910390f35b34801561015257600080fd5b5061016d600480360381019061016891906115ae565b6106f8565b60405161017a91906115ea565b60405180910390f35b34801561018f57600080fd5b506101aa60048036038101906101a591906110d1565b610737565b005b3480156101b857600080fd5b506101c161084d565b6040516101ce91906116b4565b60405180910390f35b3480156101e357600080fd5b506101fe60048036038101906101f991906115ae565b6108db565b005b34801561020c57600080fd5b50610227600480360381019061022291906116fa565b610afe565b005b34801561023557600080fd5b5061023e610c0d565b60405161024b9190611771565b60405180910390f35b34801561026057600080fd5b5061027b6004803603810190610276919061178c565b610c64565b005b34801561028957600080fd5b506102a4600480360381019061029f91906115ae565b610dfa565b6040516102b1919061181f565b60405180910390f35b8073ffffffffffffffffffffffffffffffffffffffff166108fc349081150290604051600060405180830381858888f19350505050158015610300573d6000803e3d6000fd5b5050565b60606005805480602002602001604051908101604052809291908181526020016000905b828210156103d457838290600052602060002001805461034790611870565b80601f016020809104026020016040519081016040528092919081815260200182805461037390611870565b80156103c05780601f10610395576101008083540402835291602001916103c0565b820191906000526020600020905b8154815290600101906020018083116103a357829003601f168201915b505050505081526020019060010190610328565b50505050905090565b60008054906101000a900473ffffffffffffffffffffffffffffffffffffffff1673ffffffffffffffffffffffffffffffffffffffff163373ffffffffffffffffffffffffffffffffffffffff161461046b576040517f08c379a0000000000000000000000000000000000000000000000000000000008152600401610462906118ee565b60405180910390fd5b6005819080600181540180825580915050600190039060005260206000200160009091909190915090805190602001906104a6929190610eaa565b5050565b6060600060015467ffffffffffffffff8111156104ca576104c9611285565b5b60405190808252806020026020018201604052801561050357816020015b6104f0610f30565b8152602001906001900390816104e85790505b50905060005b6001548110156106f057600460008281526020019081526020016000206040518060a001604052908160008201805461054190611870565b80601f016020809104026020016040519081016040528092919081815260200182805461056d90611870565b80156105ba5780601f1061058f576101008083540402835291602001916105ba565b820191906000526020600020905b81548152906001019060200180831161059d57829003601f168201915b505050505081526020016001820180546105d390611870565b80601f01602080910402602001604051908101604052809291908181526020018280546105ff90611870565b801561064c5780601f106106215761010080835404028352916020019161064c565b820191906000526020600020905b81548152906001019060200180831161062f57829003601f168201915b50505050508152602001600282015481526020016003820160009054906101000a900473ffffffffffffffffffffffffffffffffffffffff1673ffffffffffffffffffffffffffffffffffffffff1673ffffffffffffffffffffffffffffffffffffffff1681526020016004820154815250508282815181106106d2576106d161190e565b5b602002602001018190525080806106e89061196c565b915050610509565b508091505090565b6003818154811061070857600080fd5b906000526020600020016000915054906101000a900473ffffffffffffffffffffffffffffffffffffffff1681565b60006001905060005b6003805490508110156107d7578273ffffffffffffffffffffffffffffffffffffffff16600382815481106107785761077761190e565b5b9060005260206000200160009054906101000a900473ffffffffffffffffffffffffffffffffffffffff1673ffffffffffffffffffffffffffffffffffffffff1614156107c457600091505b80806107cf9061196c565b915050610740565b50600115158115151415610849576003829080600181540180825580915050600190039060005260206000200160009091909190916101000a81548173ffffffffffffffffffffffffffffffffffffffff021916908373ffffffffffffffffffffffffffffffffffffffff1602179055505b5050565b606060038054806020026020016040519081016040528092919081815260200182805480156108d157602002820191906000526020600020905b8160009054906101000a900473ffffffffffffffffffffffffffffffffffffffff1673ffffffffffffffffffffffffffffffffffffffff1681526020019060010190808311610887575b5050505050905090565b6004600082815260200190815260200160002060030160009054906101000a900473ffffffffffffffffffffffffffffffffffffffff1673ffffffffffffffffffffffffffffffffffffffff163373ffffffffffffffffffffffffffffffffffffffff161461097f576040517f08c379a000000000000000000000000000000000000000000000000000000000815260040161097690611a01565b60405180910390fd5b60006001805461098f9190611a21565b9050600460008281526020019081526020016000206004600084815260200190815260200160002060008201816000019080546109cb90611870565b6109d6929190610f75565b5060018201816001019080546109eb90611870565b6109f6929190610f75565b50600282015481600201556003820160009054906101000a900473ffffffffffffffffffffffffffffffffffffffff168160030160006101000a81548173ffffffffffffffffffffffffffffffffffffffff021916908373ffffffffffffffffffffffffffffffffffffffff160217905550600482015481600401559050506004600082815260200190815260200160002060008082016000610a999190611002565b600182016000610aa99190611002565b60028201600090556003820160006101000a81549073ffffffffffffffffffffffffffffffffffffffff02191690556004820160009055505060016000815480929190610af590611a55565b91905055505050565b6001548210610b42576040517f08c379a0000000000000000000000000000000000000000000000000000000008152600401610b3990611acb565b60405180910390fd5b6004600083815260200190815260200160002060030160009054906101000a900473ffffffffffffffffffffffffffffffffffffffff1673ffffffffffffffffffffffffffffffffffffffff163373ffffffffffffffffffffffffffffffffffffffff1614610be6576040517f08c379a0000000000000000000000000000000000000000000000000000000008152600401610bdd90611a01565b60405180910390fd5b80600460008481526020019081526020016000208181610c069190611fe4565b9050505050565b60008060009054906101000a900473ffffffffffffffffffffffffffffffffffffffff1673ffffffffffffffffffffffffffffffffffffffff163373ffffffffffffffffffffffffffffffffffffffff1614905090565b806060016020810190610c7791906110d1565b73ffffffffffffffffffffffffffffffffffffffff163373ffffffffffffffffffffffffffffffffffffffff1614610ce4576040517f08c379a0000000000000000000000000000000000000000000000000000000008152600401610cdb90611a01565b60405180910390fd5b7fffffffffffffffffffffffffffffffffffffffffffffffffffffffffffffffff60018054610d139190611ff2565b1115610d54576040517f08c379a0000000000000000000000000000000000000000000000000000000008152600401610d4b90612094565b60405180910390fd5b600580549050816040013510610d9f576040517f08c379a0000000000000000000000000000000000000000000000000000000008152600401610d9690612100565b60405180910390fd5b610dba816060016020810190610db591906110d1565b610737565b806004600060015481526020019081526020016000208181610ddc9190611fe4565b90505060016000815480929190610df29061196c565b919050555050565b606060058281548110610e1057610e0f61190e565b5b906000526020600020018054610e2590611870565b80601f0160208091040260200160405190810160405280929190818152602001828054610e5190611870565b8015610e9e5780601f10610e7357610100808354040283529160200191610e9e565b820191906000526020600020905b815481529060010190602001808311610e8157829003601f168201915b50505050509050919050565b828054610eb690611870565b90600052602060002090601f016020900481019282610ed85760008555610f1f565b82601f10610ef157805160ff1916838001178555610f1f565b82800160010185558215610f1f579182015b82811115610f1e578251825591602001919060010190610f03565b5b509050610f2c9190611042565b5090565b6040518060a00160405280606081526020016060815260200160008152602001600073ffffffffffffffffffffffffffffffffffffffff168152602001600081525090565b828054610f8190611870565b90600052602060002090601f016020900481019282610fa35760008555610ff1565b82601f10610fb45780548555610ff1565b82800160010185558215610ff157600052602060002091601f016020900482015b82811115610ff0578254825591600101919060010190610fd5565b5b509050610ffe9190611042565b5090565b50805461100e90611870565b6000825580601f10611020575061103f565b601f01602090049060005260206000209081019061103e9190611042565b5b50565b5b8082111561105b576000816000905550600101611043565b5090565b6000604051905090565b600080fd5b600080fd5b600073ffffffffffffffffffffffffffffffffffffffff82169050919050565b600061109e82611073565b9050919050565b6110ae81611093565b81146110b957600080fd5b50565b6000813590506110cb816110a5565b92915050565b6000602082840312156110e7576110e6611069565b5b60006110f5848285016110bc565b91505092915050565b600081519050919050565b600082825260208201905092915050565b6000819050602082019050919050565b600081519050919050565b600082825260208201905092915050565b60005b83811015611164578082015181840152602081019050611149565b83811115611173576000848401525b50505050565b6000601f19601f8301169050919050565b60006111958261112a565b61119f8185611135565b93506111af818560208601611146565b6111b881611179565b840191505092915050565b60006111cf838361118a565b905092915050565b6000602082019050919050565b60006111ef826110fe565b6111f98185611109565b93508360208202850161120b8561111a565b8060005b85811015611247578484038952815161122885826111c3565b9450611233836111d7565b925060208a0199505060018101905061120f565b50829750879550505050505092915050565b6000602082019050818103600083015261127381846111e4565b905092915050565b600080fd5b600080fd5b7f4e487b7100000000000000000000000000000000000000000000000000000000600052604160045260246000fd5b6112bd82611179565b810181811067ffffffffffffffff821117156112dc576112db611285565b5b80604052505050565b60006112ef61105f565b90506112fb82826112b4565b919050565b600067ffffffffffffffff82111561131b5761131a611285565b5b61132482611179565b9050602081019050919050565b82818337600083830152505050565b600061135361134e84611300565b6112e5565b90508281526020810184848401111561136f5761136e611280565b5b61137a848285611331565b509392505050565b600082601f8301126113975761139661127b565b5b81356113a7848260208601611340565b91505092915050565b6000602082840312156113c6576113c5611069565b5b600082013567ffffffffffffffff8111156113e4576113e361106e565b5b6113f084828501611382565b91505092915050565b600081519050919050565b600082825260208201905092915050565b6000819050602082019050919050565b6000819050919050565b61143881611425565b82525050565b61144781611093565b82525050565b600060a083016000830151848203600086015261146a828261118a565b91505060208301518482036020860152611484828261118a565b9150506040830151611499604086018261142f565b5060608301516114ac606086018261143e565b5060808301516114bf608086018261142f565b508091505092915050565b60006114d6838361144d565b905092915050565b6000602082019050919050565b60006114f6826113f9565b6115008185611404565b93508360208202850161151285611415565b8060005b8581101561154e578484038952815161152f85826114ca565b945061153a836114de565b925060208a01995050600181019050611516565b50829750879550505050505092915050565b6000602082019050818103600083015261157a81846114eb565b905092915050565b61158b81611425565b811461159657600080fd5b50565b6000813590506115a881611582565b92915050565b6000602082840312156115c4576115c3611069565b5b60006115d284828501611599565b91505092915050565b6115e481611093565b82525050565b60006020820190506115ff60008301846115db565b92915050565b600081519050919050565b600082825260208201905092915050565b6000819050602082019050919050565b600061163d838361143e565b60208301905092915050565b6000602082019050919050565b600061166182611605565b61166b8185611610565b935061167683611621565b8060005b838110156116a757815161168e8882611631565b975061169983611649565b92505060018101905061167a565b5085935050505092915050565b600060208201905081810360008301526116ce8184611656565b905092915050565b600080fd5b600060a082840312156116f1576116f06116d6565b5b81905092915050565b6000806040838503121561171157611710611069565b5b600061171f85828601611599565b925050602083013567ffffffffffffffff8111156117405761173f61106e565b5b61174c858286016116db565b9150509250929050565b60008115159050919050565b61176b81611756565b82525050565b60006020820190506117866000830184611762565b92915050565b6000602082840312156117a2576117a1611069565b5b600082013567ffffffffffffffff8111156117c0576117bf61106e565b5b6117cc848285016116db565b91505092915050565b600082825260208201905092915050565b60006117f18261112a565b6117fb81856117d5565b935061180b818560208601611146565b61181481611179565b840191505092915050565b6000602082019050818103600083015261183981846117e6565b905092915050565b7f4e487b7100000000000000000000000000000000000000000000000000000000600052602260045260246000fd5b6000600282049050600182168061188857607f821691505b6020821081141561189c5761189b611841565b5b50919050565b7f596f7520617265206e6f7420616e206f776e6572000000000000000000000000600082015250565b60006118d86014836117d5565b91506118e3826118a2565b602082019050919050565b60006020820190508181036000830152611907816118cb565b9050919050565b7f4e487b7100000000000000000000000000000000000000000000000000000000600052603260045260246000fd5b7f4e487b7100000000000000000000000000000000000000000000000000000000600052601160045260246000fd5b600061197782611425565b91507fffffffffffffffffffffffffffffffffffffffffffffffffffffffffffffffff8214156119aa576119a961193d565b5b600182019050919050565b7f596f7520617265206e6f7420616c6c6f77656400000000000000000000000000600082015250565b60006119eb6013836117d5565b91506119f6826119b5565b602082019050919050565b60006020820190508181036000830152611a1a816119de565b9050919050565b6000611a2c82611425565b9150611a3783611425565b925082821015611a4a57611a4961193d565b5b828203905092915050565b6000611a6082611425565b91506000821415611a7457611a7361193d565b5b600182039050919050565b7f4a6f6b6520696e646578206e6f7420666f756e64000000000000000000000000600082015250565b6000611ab56014836117d5565b9150611ac082611a7f565b602082019050919050565b60006020820190508181036000830152611ae481611aa8565b9050919050565b600080fd5b600080fd5b600080fd5b60008083356001602003843603038112611b1757611b16611aeb565b5b80840192508235915067ffffffffffffffff821115611b3957611b38611af0565b5b602083019250600182023603831315611b5557611b54611af5565b5b509250929050565b600082905092915050565b60008190508160005260206000209050919050565b60006020601f8301049050919050565b600082821b905092915050565b600060088302611bca7fffffffffffffffffffffffffffffffffffffffffffffffffffffffffffffffff82611b8d565b611bd48683611b8d565b95508019841693508086168417925050509392505050565b6000819050919050565b6000611c11611c0c611c0784611425565b611bec565b611425565b9050919050565b6000819050919050565b611c2b83611bf6565b611c3f611c3782611c18565b848454611b9a565b825550505050565b600090565b611c54611c47565b611c5f818484611c22565b505050565b5b81811015611c8357611c78600082611c4c565b600181019050611c65565b5050565b601f821115611cc857611c9981611b68565b611ca284611b7d565b81016020851015611cb1578190505b611cc5611cbd85611b7d565b830182611c64565b50505b505050565b600082821c905092915050565b6000611ceb60001984600802611ccd565b1980831691505092915050565b6000611d048383611cda565b9150826002028217905092915050565b611d1e8383611b5d565b67ffffffffffffffff811115611d3757611d36611285565b5b611d418254611870565b611d4c828285611c87565b6000601f831160018114611d7b5760008415611d69578287013590505b611d738582611cf8565b865550611ddb565b601f198416611d8986611b68565b60005b82811015611db157848901358255600182019150602085019450602081019050611d8c565b86831015611dce5784890135611dca601f891682611cda565b8355505b6001600288020188555050505b50505050505050565b611def838383611d14565b505050565b60008135611e0181611582565b80915050919050565b60008160001b9050919050565b60007fffffffffffffffffffffffffffffffffffffffffffffffffffffffffffffffff611e4384611e0a565b9350801983169250808416831791505092915050565b611e6282611bf6565b611e75611e6e82611c18565b8354611e17565b8255505050565b60008135611e89816110a5565b80915050919050565b600073ffffffffffffffffffffffffffffffffffffffff611eb284611e0a565b9350801983169250808416831791505092915050565b6000611ee3611ede611ed984611073565b611bec565b611073565b9050919050565b6000611ef582611ec8565b9050919050565b6000611f0782611eea565b9050919050565b6000819050919050565b611f2182611efc565b611f34611f2d82611f0e565b8354611e92565b8255505050565b6000810160008301611f4d8185611afa565b611f58818386611de4565b505050506001810160208301611f6e8185611afa565b611f79818386611de4565b50505050600281016040830180611f8f81611df4565b9050611f9b8184611e59565b505050600381016060830180611fb081611e7c565b9050611fbc8184611f18565b505050600481016080830180611fd181611df4565b9050611fdd8184611e59565b5050505050565b611fee8282611f3b565b5050565b6000611ffd82611425565b915061200883611425565b9250827fffffffffffffffffffffffffffffffffffffffffffffffffffffffffffffffff0382111561203d5761203c61193d565b5b828201905092915050565b7f436f756e746572206f766572666c6f7700000000000000000000000000000000600082015250565b600061207e6010836117d5565b915061208982612048565b602082019050919050565b600060208201905081810360008301526120ad81612071565b9050919050565b7f496e76616c69642063617465676f727920696400000000000000000000000000600082015250565b60006120ea6013836117d5565b91506120f5826120b4565b602082019050919050565b60006020820190508181036000830152612119816120dd565b905091905056fea26469706673582212206ae9eb4e2627fb07360f69dc7874927e704524338111ee56dd6ed31d8411fee264736f6c63430008090033",
  "linkReferences": {},
  "deployedLinkReferences": {}
}